{
  "contractName": "Election",
  "abi": [
    {
      "inputs": [],
      "payable": false,
      "stateMutability": "nonpayable",
      "type": "constructor"
    },
    {
      "anonymous": false,
      "inputs": [
        {
          "indexed": true,
          "internalType": "uint256",
          "name": "_candidateId",
          "type": "uint256"
        }
      ],
      "name": "votedEvent",
      "type": "event"
    },
    {
      "constant": true,
      "inputs": [
        {
          "internalType": "string",
          "name": "",
          "type": "string"
        }
      ],
      "name": "Voter",
      "outputs": [
        {
          "internalType": "bool",
          "name": "",
          "type": "bool"
        }
      ],
      "payable": false,
      "stateMutability": "view",
      "type": "function"
    },
    {
      "constant": true,
      "inputs": [
        {
          "internalType": "uint256",
          "name": "",
          "type": "uint256"
        }
      ],
      "name": "candidates",
      "outputs": [
        {
          "internalType": "string",
          "name": "uid",
          "type": "string"
        },
        {
          "internalType": "uint256",
          "name": "voteCount",
          "type": "uint256"
        },
        {
          "internalType": "string",
          "name": "party",
          "type": "string"
        },
        {
          "internalType": "uint256",
          "name": "id",
          "type": "uint256"
        }
      ],
      "payable": false,
      "stateMutability": "view",
      "type": "function"
    },
    {
      "constant": true,
      "inputs": [],
      "name": "candidatesCount",
      "outputs": [
        {
          "internalType": "uint256",
          "name": "",
          "type": "uint256"
        }
      ],
      "payable": false,
      "stateMutability": "view",
      "type": "function"
    },
    {
      "constant": true,
      "inputs": [
        {
          "internalType": "string",
          "name": "",
          "type": "string"
        }
      ],
      "name": "isEnrolled",
      "outputs": [
        {
          "internalType": "bool",
          "name": "",
          "type": "bool"
        }
      ],
      "payable": false,
      "stateMutability": "view",
      "type": "function"
    },
    {
      "constant": true,
      "inputs": [
        {
          "internalType": "string",
          "name": "",
          "type": "string"
        }
      ],
      "name": "isEnrolledcd",
      "outputs": [
        {
          "internalType": "bool",
          "name": "",
          "type": "bool"
        }
      ],
      "payable": false,
      "stateMutability": "view",
      "type": "function"
    },
    {
      "constant": true,
      "inputs": [
        {
          "internalType": "string",
          "name": "",
          "type": "string"
        }
      ],
      "name": "isPartyEnrolled",
      "outputs": [
        {
          "internalType": "bool",
          "name": "",
          "type": "bool"
        }
      ],
      "payable": false,
      "stateMutability": "view",
      "type": "function"
    },
    {
      "constant": true,
      "inputs": [
        {
          "internalType": "string",
          "name": "",
          "type": "string"
        }
      ],
      "name": "mydb",
      "outputs": [
        {
          "internalType": "string",
          "name": "name",
          "type": "string"
        },
        {
          "internalType": "string",
          "name": "dob",
          "type": "string"
        },
        {
          "internalType": "string",
          "name": "fname",
          "type": "string"
        },
        {
          "internalType": "string",
          "name": "adrs",
          "type": "string"
        },
        {
          "internalType": "string",
          "name": "uid",
          "type": "string"
        },
        {
          "internalType": "address",
          "name": "account",
          "type": "address"
        }
      ],
      "payable": false,
      "stateMutability": "view",
      "type": "function"
    },
    {
      "constant": true,
      "inputs": [],
      "name": "voterCount",
      "outputs": [
        {
          "internalType": "uint256",
          "name": "",
          "type": "uint256"
        }
      ],
      "payable": false,
      "stateMutability": "view",
      "type": "function"
    },
    {
      "constant": false,
      "inputs": [
        {
          "internalType": "string",
          "name": "_uid",
          "type": "string"
        }
      ],
      "name": "setEnroll",
      "outputs": [],
      "payable": false,
      "stateMutability": "nonpayable",
      "type": "function"
    },
    {
      "constant": false,
      "inputs": [
        {
          "internalType": "string",
          "name": "_uid",
          "type": "string"
        },
        {
          "internalType": "string",
          "name": "_party",
          "type": "string"
        }
      ],
      "name": "setEnrollcd",
      "outputs": [],
      "payable": false,
      "stateMutability": "nonpayable",
      "type": "function"
    },
    {
      "constant": false,
      "inputs": [
        {
          "internalType": "string",
          "name": "_name",
          "type": "string"
        },
        {
          "internalType": "string",
          "name": "_dob",
          "type": "string"
        },
        {
          "internalType": "string",
          "name": "_fname",
          "type": "string"
        },
        {
          "internalType": "string",
          "name": "_adrs",
          "type": "string"
        },
        {
          "internalType": "string",
          "name": "_uid",
          "type": "string"
        },
        {
          "internalType": "address",
          "name": "_account",
          "type": "address"
        }
      ],
      "name": "addVoter",
      "outputs": [],
      "payable": false,
      "stateMutability": "nonpayable",
      "type": "function"
    },
    {
      "constant": false,
      "inputs": [
        {
          "internalType": "string",
          "name": "_uid",
          "type": "string"
        },
        {
          "internalType": "uint256",
          "name": "_candidateId",
          "type": "uint256"
        }
      ],
      "name": "vote",
      "outputs": [],
      "payable": false,
      "stateMutability": "nonpayable",
      "type": "function"
    }
  ],
  "bytecode": "0x60806040523480156200001157600080fd5b50620001456040518060400160405280601481526020017f616268697368656b206b756d61722073696e67680000000000000000000000008152506040518060400160405280600a81526020017f30382f30332f31393939000000000000000000000000000000000000000000008152506040518060400160405280600a81526020017f6173206b6f72616e6761000000000000000000000000000000000000000000008152506040518060400160405280600981526020017f62616e67616c6f726500000000000000000000000000000000000000000000008152506040518060400160405280600c81526020017f3839353632393732383836300000000000000000000000000000000000000000815250731616b75799905270016ab93c8979c6541f398ba162000d4960201b60201c565b620002786040518060400160405280600a81526020017f6a6f686e20736d697468000000000000000000000000000000000000000000008152506040518060400160405280600a81526020017f30332f30382f31393939000000000000000000000000000000000000000000008152506040518060400160405280600981526020017f6b656e20736d69746800000000000000000000000000000000000000000000008152506040518060400160405280600881526020017f6e657720796f726b0000000000000000000000000000000000000000000000008152506040518060400160405280600c81526020017f383935363239373238383631000000000000000000000000000000000000000081525073f7c0809fd2338cd08e5058ca5eb522263a51d6fe62000d4960201b60201c565b620003ab6040518060400160405280600e81526020017f62686172617420736861757279610000000000000000000000000000000000008152506040518060400160405280600a81526020017f31352f30332f31393938000000000000000000000000000000000000000000008152506040518060400160405280600781526020017f72616d206c616c000000000000000000000000000000000000000000000000008152506040518060400160405280600581526020017f7061746e610000000000000000000000000000000000000000000000000000008152506040518060400160405280600c81526020017f3839353632393732383836320000000000000000000000000000000000000000815250732b1f09d9df3a675e927f3b89b8f90708b167a22b62000d4960201b60201c565b620004de6040518060400160405280600a81526020017f626973616e2070616e74000000000000000000000000000000000000000000008152506040518060400160405280600a81526020017f32392f30392f31393937000000000000000000000000000000000000000000008152506040518060400160405280600a81526020017f6b6973616e2070616e74000000000000000000000000000000000000000000008152506040518060400160405280600881526020017f68616c6477616e690000000000000000000000000000000000000000000000008152506040518060400160405280600c81526020017f38393536323937323838363300000000000000000000000000000000000000008152507367febc100804d847b90373180ca0f432e498647362000d4960201b60201c565b620006116040518060400160405280600a81526020017f726f686974206e656769000000000000000000000000000000000000000000008152506040518060400160405280600a81526020017f32302f31322f31393939000000000000000000000000000000000000000000008152506040518060400160405280600981526020017f73686976206e65676900000000000000000000000000000000000000000000008152506040518060400160405280600881526020017f6261696a6e6174680000000000000000000000000000000000000000000000008152506040518060400160405280600c81526020017f38393536323937323838363400000000000000000000000000000000000000008152507324c5f8904c8054afee691a9f14d5c0d1ced0289462000d4960201b60201c565b620007446040518060400160405280600c81526020017f646562616e696b207361686100000000000000000000000000000000000000008152506040518060400160405280600a81526020017f31322f30362f31393938000000000000000000000000000000000000000000008152506040518060400160405280600781526020017f64702073616861000000000000000000000000000000000000000000000000008152506040518060400160405280600781526020017f6b6f6c6b617461000000000000000000000000000000000000000000000000008152506040518060400160405280600c81526020017f38393536323937323838363500000000000000000000000000000000000000008152507394e01f0831e5c5a44ad9cb2afbfc42361fe5af7162000d4960201b60201c565b620008776040518060400160405280600d81526020017f76696e6e65742070616e776172000000000000000000000000000000000000008152506040518060400160405280600a81526020017f32342f30382f31393939000000000000000000000000000000000000000000008152506040518060400160405280600981526020017f61702070616e77617200000000000000000000000000000000000000000000008152506040518060400160405280600581526020017f74656872690000000000000000000000000000000000000000000000000000008152506040518060400160405280600c81526020017f383935363239373238383636000000000000000000000000000000000000000081525073b22a6c5f55ccd14a1df5d5546c69bcb8f9b122d262000d4960201b60201c565b620009aa6040518060400160405280600a81526020017f76696a61792073686168000000000000000000000000000000000000000000008152506040518060400160405280600a81526020017f30392f30312f31393936000000000000000000000000000000000000000000008152506040518060400160405280600a81526020017f616e616e642073686168000000000000000000000000000000000000000000008152506040518060400160405280600881526020017f646568726164756e0000000000000000000000000000000000000000000000008152506040518060400160405280600c81526020017f383935363239373238383637000000000000000000000000000000000000000081525073a783166b04b4a6ab464657fe9891a9dfe6b3165462000d4960201b60201c565b62000add6040518060400160405280600b81526020017f706177616e2072617761740000000000000000000000000000000000000000008152506040518060400160405280600a81526020017f30352f30382f31393939000000000000000000000000000000000000000000008152506040518060400160405280600c81526020017f72616d65736820726177617400000000000000000000000000000000000000008152506040518060400160405280600981526020017f62616765736877617200000000000000000000000000000000000000000000008152506040518060400160405280600c81526020017f3839353632393732383836380000000000000000000000000000000000000000815250731e9bca52aece9236ce869f6e60e4c3b7473d1dc462000d4960201b60201c565b62000c106040518060400160405280600d81526020017f7361676172206b6f72616e6761000000000000000000000000000000000000008152506040518060400160405280600a81526020017f31352f30362f31393936000000000000000000000000000000000000000000008152506040518060400160405280600d81526020017f6b616d616c206b6f72616e6761000000000000000000000000000000000000008152506040518060400160405280600781526020017f6b617573616e69000000000000000000000000000000000000000000000000008152506040518060400160405280600c81526020017f3839353632393732383836390000000000000000000000000000000000000000815250730beb4fd8a62e5c1b09cb853a45dbb86cd246eaa562000d4960201b60201c565b62000d436040518060400160405280600a81526020017f536177616e2062656c69000000000000000000000000000000000000000000008152506040518060400160405280600a81526020017f31352f30382f31393936000000000000000000000000000000000000000000008152506040518060400160405280600681526020017f532042656c6900000000000000000000000000000000000000000000000000008152506040518060400160405280600881526020017f67756c62617267610000000000000000000000000000000000000000000000008152506040518060400160405280600c81526020017f3839353632393732383837300000000000000000000000000000000000000000815250730beb4fd8a62e5c1b09cb853a45dbb86cd246eaa562000d4960201b60201c565b6200109b565b6040518060c001604052808781526020018681526020018581526020018481526020018381526020018273ffffffffffffffffffffffffffffffffffffffff168152506003836040518082805190602001908083835b6020831062000dc4578051825260208201915060208101905060208303925062000d9f565b6001836020036101000a0380198251168184511680821785525050505050509050019150509081526020016040518091039020600082015181600001908051906020019062000e1592919062000fec565b50602082015181600101908051906020019062000e3492919062000fec565b50604082015181600201908051906020019062000e5392919062000fec565b50606082015181600301908051906020019062000e7292919062000fec565b50608082015181600401908051906020019062000e9192919062000fec565b5060a08201518160050160006101000a81548173ffffffffffffffffffffffffffffffffffffffff021916908373ffffffffffffffffffffffffffffffffffffffff16021790555090505060006004836040518082805190602001908083835b6020831062000f16578051825260208201915060208101905060208303925062000ef1565b6001836020036101000a038019825116818451168082178552505050505050905001915050908152602001604051809103902060006101000a81548160ff02191690831515021790555060006005836040518082805190602001908083835b6020831062000f9a578051825260208201915060208101905060208303925062000f75565b6001836020036101000a038019825116818451168082178552505050505050905001915050908152602001604051809103902060006101000a81548160ff021916908315150217905550505050505050565b828054600181600116156101000203166002900490600052602060002090601f016020900481019282601f106200102f57805160ff191683800117855562001060565b8280016001018555821562001060579182015b828111156200105f57825182559160200191906001019062001042565b5b5090506200106f919062001073565b5090565b6200109891905b80821115620010945760008160009055506001016200107a565b5090565b90565b611ce680620010ab6000396000f3fe608060405234801561001057600080fd5b50600436106100b45760003560e01c80635c741815116100715780635c7418151461047757806384903ec81461054a578063a63858031461061d578063ae531959146106e2578063be1a62a414610834578063ce9804ed14610b6b576100b4565b806310ef4a5b146100b95780632528280a1461018c5780632a59c8661461025f5780632d35a8a21461031a5780633477ee2e1461033857806342169e4814610459575b600080fd5b610172600480360360208110156100cf57600080fd5b81019080803590602001906401000000008111156100ec57600080fd5b8201836020820111156100fe57600080fd5b8035906020019184600183028401116401000000008311171561012057600080fd5b91908080601f016020809104026020016040519081016040528093929190818152602001838380828437600081840152601f19601f820116905080830192505050505050509192919290505050610e82565b604051808215151515815260200191505060405180910390f35b610245600480360360208110156101a257600080fd5b81019080803590602001906401000000008111156101bf57600080fd5b8201836020820111156101d157600080fd5b803590602001918460018302840111640100000000831117156101f357600080fd5b91908080601f016020809104026020016040519081016040528093929190818152602001838380828437600081840152601f19601f820116905080830192505050505050509192919290505050610eb8565b604051808215151515815260200191505060405180910390f35b6103186004803603602081101561027557600080fd5b810190808035906020019064010000000081111561029257600080fd5b8201836020820111156102a457600080fd5b803590602001918460018302840111640100000000831117156102c657600080fd5b91908080601f016020809104026020016040519081016040528093929190818152602001838380828437600081840152601f19601f820116905080830192505050505050509192919290505050610eee565b005b610322610f73565b6040518082815260200191505060405180910390f35b6103646004803603602081101561034e57600080fd5b8101908080359060200190929190505050610f79565b604051808060200185815260200180602001848152602001838103835287818151815260200191508051906020019080838360005b838110156103b4578082015181840152602081019050610399565b50505050905090810190601f1680156103e15780820380516001836020036101000a031916815260200191505b50838103825285818151815260200191508051906020019080838360005b8381101561041a5780820151818401526020810190506103ff565b50505050905090810190601f1680156104475780820380516001836020036101000a031916815260200191505b50965050505050505060405180910390f35b6104616110d9565b6040518082815260200191505060405180910390f35b6105306004803603602081101561048d57600080fd5b81019080803590602001906401000000008111156104aa57600080fd5b8201836020820111156104bc57600080fd5b803590602001918460018302840111640100000000831117156104de57600080fd5b91908080601f016020809104026020016040519081016040528093929190818152602001838380828437600081840152601f19601f8201169050808301925050505050505091929192905050506110df565b604051808215151515815260200191505060405180910390f35b6106036004803603602081101561056057600080fd5b810190808035906020019064010000000081111561057d57600080fd5b82018360208201111561058f57600080fd5b803590602001918460018302840111640100000000831117156105b157600080fd5b91908080601f016020809104026020016040519081016040528093929190818152602001838380828437600081840152601f19601f820116905080830192505050505050509192919290505050611115565b604051808215151515815260200191505060405180910390f35b6106e06004803603604081101561063357600080fd5b810190808035906020019064010000000081111561065057600080fd5b82018360208201111561066257600080fd5b8035906020019184600183028401116401000000008311171561068457600080fd5b91908080601f016020809104026020016040519081016040528093929190818152602001838380828437600081840152601f19601f8201169050808301925050505050505091929192908035906020019092919050505061114b565b005b610832600480360360408110156106f857600080fd5b810190808035906020019064010000000081111561071557600080fd5b82018360208201111561072757600080fd5b8035906020019184600183028401116401000000008311171561074957600080fd5b91908080601f016020809104026020016040519081016040528093929190818152602001838380828437600081840152601f19601f820116905080830192505050505050509192919290803590602001906401000000008111156107ac57600080fd5b8201836020820111156107be57600080fd5b803590602001918460018302840111640100000000831117156107e057600080fd5b91908080601f016020809104026020016040519081016040528093929190818152602001838380828437600081840152601f19601f820116905080830192505050505050509192919290505050611347565b005b610b69600480360360c081101561084a57600080fd5b810190808035906020019064010000000081111561086757600080fd5b82018360208201111561087957600080fd5b8035906020019184600183028401116401000000008311171561089b57600080fd5b91908080601f016020809104026020016040519081016040528093929190818152602001838380828437600081840152601f19601f820116905080830192505050505050509192919290803590602001906401000000008111156108fe57600080fd5b82018360208201111561091057600080fd5b8035906020019184600183028401116401000000008311171561093257600080fd5b91908080601f016020809104026020016040519081016040528093929190818152602001838380828437600081840152601f19601f8201169050808301925050505050505091929192908035906020019064010000000081111561099557600080fd5b8201836020820111156109a757600080fd5b803590602001918460018302840111640100000000831117156109c957600080fd5b91908080601f016020809104026020016040519081016040528093929190818152602001838380828437600081840152601f19601f82011690508083019250505050505050919291929080359060200190640100000000811115610a2c57600080fd5b820183602082011115610a3e57600080fd5b80359060200191846001830284011164010000000083111715610a6057600080fd5b91908080601f016020809104026020016040519081016040528093929190818152602001838380828437600081840152601f19601f82011690508083019250505050505050919291929080359060200190640100000000811115610ac357600080fd5b820183602082011115610ad557600080fd5b80359060200191846001830284011164010000000083111715610af757600080fd5b91908080601f016020809104026020016040519081016040528093929190818152602001838380828437600081840152601f19601f820116905080830192505050505050509192919290803573ffffffffffffffffffffffffffffffffffffffff16906020019092919050505061160f565b005b610c2460048036036020811015610b8157600080fd5b8101908080359060200190640100000000811115610b9e57600080fd5b820183602082011115610bb057600080fd5b80359060200191846001830284011164010000000083111715610bd257600080fd5b91908080601f016020809104026020016040519081016040528093929190818152602001838380828437600081840152601f19601f8201169050808301925050505050505091929192905050506118a2565b6040518080602001806020018060200180602001806020018773ffffffffffffffffffffffffffffffffffffffff1673ffffffffffffffffffffffffffffffffffffffff16815260200186810386528c818151815260200191508051906020019080838360005b83811015610ca6578082015181840152602081019050610c8b565b50505050905090810190601f168015610cd35780820380516001836020036101000a031916815260200191505b5086810385528b818151815260200191508051906020019080838360005b83811015610d0c578082015181840152602081019050610cf1565b50505050905090810190601f168015610d395780820380516001836020036101000a031916815260200191505b5086810384528a818151815260200191508051906020019080838360005b83811015610d72578082015181840152602081019050610d57565b50505050905090810190601f168015610d9f5780820380516001836020036101000a031916815260200191505b50868103835289818151815260200191508051906020019080838360005b83811015610dd8578082015181840152602081019050610dbd565b50505050905090810190601f168015610e055780820380516001836020036101000a031916815260200191505b50868103825288818151815260200191508051906020019080838360005b83811015610e3e578082015181840152602081019050610e23565b50505050905090810190601f168015610e6b5780820380516001836020036101000a031916815260200191505b509b50505050505050505050505060405180910390f35b6005818051602081018201805184825260208301602085012081835280955050505050506000915054906101000a900460ff1681565b6004818051602081018201805184825260208301602085012081835280955050505050506000915054906101000a900460ff1681565b60016004826040518082805190602001908083835b60208310610f265780518252602082019150602081019050602083039250610f03565b6001836020036101000a038019825116818451168082178552505050505050905001915050908152602001604051809103902060006101000a81548160ff02191690831515021790555050565b60015481565b6000602052806000526040600020600091509050806000018054600181600116156101000203166002900480601f0160208091040260200160405190810160405280929190818152602001828054600181600116156101000203166002900480156110255780601f10610ffa57610100808354040283529160200191611025565b820191906000526020600020905b81548152906001019060200180831161100857829003601f168201915b505050505090806001015490806002018054600181600116156101000203166002900480601f0160208091040260200160405190810160405280929190818152602001828054600181600116156101000203166002900480156110c95780601f1061109e576101008083540402835291602001916110c9565b820191906000526020600020905b8154815290600101906020018083116110ac57829003601f168201915b5050505050908060030154905084565b60025481565b6007818051602081018201805184825260208301602085012081835280955050505050506000915054906101000a900460ff1681565b6006818051602081018201805184825260208301602085012081835280955050505050506000915054906101000a900460ff1681565b6007826040518082805190602001908083835b60208310611181578051825260208201915060208101905060208303925061115e565b6001836020036101000a038019825116818451168082178552505050505050905001915050908152602001604051809103902060009054906101000a900460ff1615611210576040517f08c379a0000000000000000000000000000000000000000000000000000000008152600401808060200182810382526000815260200160200191505060405180910390fd5b60008111801561122257506001548111155b61126f576040517f08c379a0000000000000000000000000000000000000000000000000000000008152600401808060200182810382526000815260200160200191505060405180910390fd5b60016007836040518082805190602001908083835b602083106112a75780518252602082019150602081019050602083039250611284565b6001836020036101000a038019825116818451168082178552505050505050905001915050908152602001604051809103902060006101000a81548160ff02191690831515021790555060008082815260200190815260200160002060010160008154809291906001019190505550807ffff3c900d938d21d0990d786e819f29b8d05c1ef587b462b939609625b684b1660405160405180910390a25050565b60016005836040518082805190602001908083835b6020831061137f578051825260208201915060208101905060208303925061135c565b6001836020036101000a038019825116818451168082178552505050505050905001915050908152602001604051809103902060006101000a81548160ff02191690831515021790555060606040518060400160405280600381526020017f696e6400000000000000000000000000000000000000000000000000000000008152509050806040516020018082805190602001908083835b6020831061143a5780518252602082019150602081019050602083039250611417565b6001836020036101000a03801982511681845116808217855250505050505090500191505060405160208183030381529060405280519060200120826040516020018082805190602001908083835b602083106114ac5780518252602082019150602081019050602083039250611489565b6001836020036101000a038019825116818451168082178552505050505050905001915050604051602081830303815290604052805190602001201461156f5760016006836040518082805190602001908083835b602083106115245780518252602082019150602081019050602083039250611501565b6001836020036101000a038019825116818451168082178552505050505050905001915050908152602001604051809103902060006101000a81548160ff0219169083151502179055505b600160008154809291906001019190505550604051806080016040528084815260200160008152602001838152602001600154815250600080600154815260200190815260200160002060008201518160000190805190602001906115d5929190611c0c565b506020820151816001015560408201518160020190805190602001906115fc929190611c0c565b5060608201518160030155905050505050565b6040518060c001604052808781526020018681526020018581526020018481526020018381526020018273ffffffffffffffffffffffffffffffffffffffff168152506003836040518082805190602001908083835b602083106116885780518252602082019150602081019050602083039250611665565b6001836020036101000a038019825116818451168082178552505050505050905001915050908152602001604051809103902060008201518160000190805190602001906116d7929190611c0c565b5060208201518160010190805190602001906116f4929190611c0c565b506040820151816002019080519060200190611711929190611c0c565b50606082015181600301908051906020019061172e929190611c0c565b50608082015181600401908051906020019061174b929190611c0c565b5060a08201518160050160006101000a81548173ffffffffffffffffffffffffffffffffffffffff021916908373ffffffffffffffffffffffffffffffffffffffff16021790555090505060006004836040518082805190602001908083835b602083106117ce57805182526020820191506020810190506020830392506117ab565b6001836020036101000a038019825116818451168082178552505050505050905001915050908152602001604051809103902060006101000a81548160ff02191690831515021790555060006005836040518082805190602001908083835b60208310611850578051825260208201915060208101905060208303925061182d565b6001836020036101000a038019825116818451168082178552505050505050905001915050908152602001604051809103902060006101000a81548160ff021916908315150217905550505050505050565b600381805160208101820180518482526020830160208501208183528095505050505050600091509050806000018054600181600116156101000203166002900480601f0160208091040260200160405190810160405280929190818152602001828054600181600116156101000203166002900480156119645780601f1061193957610100808354040283529160200191611964565b820191906000526020600020905b81548152906001019060200180831161194757829003601f168201915b505050505090806001018054600181600116156101000203166002900480601f016020809104026020016040519081016040528092919081815260200182805460018160011615610100020316600290048015611a025780601f106119d757610100808354040283529160200191611a02565b820191906000526020600020905b8154815290600101906020018083116119e557829003601f168201915b505050505090806002018054600181600116156101000203166002900480601f016020809104026020016040519081016040528092919081815260200182805460018160011615610100020316600290048015611aa05780601f10611a7557610100808354040283529160200191611aa0565b820191906000526020600020905b815481529060010190602001808311611a8357829003601f168201915b505050505090806003018054600181600116156101000203166002900480601f016020809104026020016040519081016040528092919081815260200182805460018160011615610100020316600290048015611b3e5780601f10611b1357610100808354040283529160200191611b3e565b820191906000526020600020905b815481529060010190602001808311611b2157829003601f168201915b505050505090806004018054600181600116156101000203166002900480601f016020809104026020016040519081016040528092919081815260200182805460018160011615610100020316600290048015611bdc5780601f10611bb157610100808354040283529160200191611bdc565b820191906000526020600020905b815481529060010190602001808311611bbf57829003601f168201915b5050505050908060050160009054906101000a900473ffffffffffffffffffffffffffffffffffffffff16905086565b828054600181600116156101000203166002900490600052602060002090601f016020900481019282601f10611c4d57805160ff1916838001178555611c7b565b82800160010185558215611c7b579182015b82811115611c7a578251825591602001919060010190611c5f565b5b509050611c889190611c8c565b5090565b611cae91905b80821115611caa576000816000905550600101611c92565b5090565b9056fea265627a7a7231582038e6c53772ab03310f19ee3b9ba8b8aadb39eeb78ebb39d9462e7e7f4cf0266064736f6c63430005100032",
  "source": "pragma solidity  >=0.4.21 <0.7.0;\n\n/*contract Election {\n    // Model a Candidate\n    struct Candidate {\n        uint id;\n        string name;\n        uint voteCount;\n    }\n    // Store accounts that have voted\n    mapping(address => bool) public voters;\n    // Store Candidates\n    // Fetch Candidate\n    mapping(uint => Candidate) public candidates;\n    // Store Candidates Count\n    uint public candidatesCount;\n    // voted event\n    event votedEvent (\n        uint indexed _candidateId\n    );\n    constructor () public {\n        addCandidate(\"Candidate 1\");\n        addCandidate(\"Candidate 2\");\n    }\n    function addCandidate (string memory _name) private {\n        candidatesCount ++;\n        candidates[candidatesCount] = Candidate(candidatesCount, _name, 0);\n    }\n    function vote (uint _candidateId) public {\n        // require that they haven't voted before\n        require(!voters[msg.sender],\"\");\n        // require a valid candidate\n        require(_candidateId > 0 && _candidateId <= candidatesCount,\"\");\n        // record that voter has voted\n        voters[msg.sender] = true;\n        // update candidate vote Count\n        candidates[_candidateId].voteCount ++;\n        // trigger voted event\n        emit votedEvent(_candidateId);\n    }\n}*/\n\ncontract Election {\n\n    //candidate model\n    struct Candidate {\n        string uid;\n        uint voteCount;\n        string party;\n        uint id;\n    }\n\n    //store and fetch candidates\n    mapping(uint => Candidate) public candidates;\n\n    //no of candidates for later accessing\n    uint public candidatesCount;\n\n    //aadhar database\n    struct adhar {\n        string name;\n        string dob;\n        string fname;\n        string adrs;\n        string uid;\n        address account;\n\n    }\n\n    //keeping track of no of voters\n    uint public voterCount;\n\n    //aadhar database\n    mapping(string => adhar) public mydb;\n\n    //voter enrollment mapping\n    mapping(string => bool) public isEnrolled;\n\n    //enrolled voters\n    function setEnroll(string  memory _uid) public {\n        isEnrolled[_uid] = true;\n\n    }\n\n    //candidate enrollment mapping\n    mapping(string => bool) public isEnrolledcd;\n    //for unique party\n    mapping(string => bool) public isPartyEnrolled;\n\n    //enrolled candidates\n    function setEnrollcd(string memory _uid,string memory _party) public {\n\n        isEnrolledcd[_uid] = true;\n        string memory ind = \"ind\";\n        if(keccak256(abi.encodePacked(_party)) != keccak256(abi.encodePacked(ind)) ) {\n         isPartyEnrolled[_party] = true;\n        }\n        // if(bytes(_party).length < 11) {\n        //     isPartyEnrolled[_party] = true;\n        // }\n        candidatesCount++;\n        candidates[candidatesCount] = Candidate(_uid,0,_party,candidatesCount);\n\n    }\n\n    constructor() public {\n        addVoter(\"abhishek kumar singh\",\"08/03/1999\",\"as koranga\",\"bangalore\",\"895629728860\",0x1616B75799905270016AB93C8979c6541f398bA1);\n        addVoter(\"john smith\",\"03/08/1999\",\"ken smith\",\"new york\",\"895629728861\",0xf7C0809fD2338cD08e5058ca5EB522263a51D6Fe);\n        addVoter(\"bharat shaurya\",\"15/03/1998\",\"ram lal\",\"patna\",\"895629728862\",0x2B1f09D9df3a675E927F3B89B8F90708B167A22b);\n        addVoter(\"bisan pant\",\"29/09/1997\",\"kisan pant\",\"haldwani\",\"895629728863\",0x67fEbc100804d847B90373180cA0F432e4986473);\n        addVoter(\"rohit negi\",\"20/12/1999\",\"shiv negi\",\"baijnath\",\"895629728864\",0x24c5F8904C8054aFeE691a9F14D5C0D1CEd02894);\n        addVoter(\"debanik saha\",\"12/06/1998\",\"dp saha\",\"kolkata\",\"895629728865\",0x94E01f0831E5C5A44Ad9cb2aFbFc42361fe5AF71);\n        addVoter(\"vinnet panwar\",\"24/08/1999\",\"ap panwar\",\"tehri\",\"895629728866\",0xb22A6C5F55CCd14a1Df5D5546C69bcb8f9B122d2);\n        addVoter(\"vijay shah\",\"09/01/1996\",\"anand shah\",\"dehradun\",\"895629728867\",0xa783166B04b4a6ab464657fe9891a9DFe6B31654);\n        addVoter(\"pawan rawat\",\"05/08/1999\",\"ramesh rawat\",\"bageshwar\",\"895629728868\",0x1E9BCA52AeCE9236Ce869F6E60E4C3b7473D1DC4);\n        addVoter(\"sagar koranga\",\"15/06/1996\",\"kamal koranga\",\"kausani\",\"895629728869\",0x0beB4FD8a62e5C1b09Cb853A45Dbb86cd246eAa5);\n        addVoter(\"Sawan beli\",\"15/08/1996\",\"S Beli\",\"gulbarga\",\"895629728870\",0x0beB4FD8a62e5C1b09Cb853A45Dbb86cd246eAa5);\n\n    }\n\n    function addVoter(string memory _name,string memory _dob,string memory _fname,\n        string memory _adrs,string memory _uid,address _account) public {\n        //voterCount++;\n        mydb[_uid] = adhar(_name,_dob,_fname,_adrs,_uid,_account);\n        isEnrolled[_uid] = false;\n        isEnrolledcd[_uid] = false;\n\n    }\n\n    //voter who voted once\n    mapping(string => bool) public  Voter;\n\n    //events\n    event votedEvent(\n        uint indexed _candidateId\n    );\n\n    //vote function\n    function vote(string memory _uid,uint _candidateId) public{\n\n        //require voter has not voted before\n        require(!Voter[_uid],\"\");\n\n         // require a valid candidate\n        require(_candidateId > 0 && _candidateId <= candidatesCount,\"\");\n\n        // record that voter has voted\n        Voter[_uid] = true;\n\n        // update candidate vote Count\n        candidates[_candidateId].voteCount ++;\n\n        //emit the event\n        emit votedEvent(_candidateId);\n\n    }\n}",
  "sourcePath": "Z:/final_election_blockchain-v1.final-/contracts/Election.sol",
  "compiler": {
    "name": "solc",
    "version": "0.5.16+commit.9c3226ce.Emscripten.clang"
  },
  "schemaVersion": "3.0.21",
  "updatedAt": "2020-06-10T11:32:10.988Z",
  "networkType": "ethereum",
  "devdoc": {
    "methods": {}
  },
  "userdoc": {
    "methods": {}
  }
}